:100000000C9434000C9446000C9446000C9446006A
:100010000C9446000C9446000C9446000C94460048
:100020000C9446000C9446000C9446000C94460038
:100030000C9446000C9446000C9446000C94460028
:100040000C9446000C9446000C9446000C94460018
:100050000C9446000C9446000C9446000C94460008
:100060000C9446000C94460011241FBECFEFD8E03C
:10007000DEBFCDBF11E0A0E0B1E001C01D92A23013
:10008000B107E1F70E9448000C9445010C94000070
:100090000E94820080E090E008955198569A20983E
:1000A000499902C0189B02C05E9808955E9A08950F
:1000B000ECE7F0E0808180648083EAE7F0E0808113
:1000C00087688083089590917C00987F90937C004E
:1000D00090917C008770892B80937C0080917A00BE
:1000E000806480937A0080917A0084FFFCCF8091B5
:1000F0007A00806180937A002091780030917900B5
:10010000C90108952F923F924F925F926F927F9212
:100110008F929F92AF92BF92CF92DF92EF92FF9217
:100120000F931F93CF93DF930E94580082E8809330
:1001300080008BE080938100519A299A69E1262EF4
:10014000312C51E2452E512C44EE642E41E0742EA8
:10015000C0E5D3EC3DE1832E912C26E6A22E21E0D2
:10016000B22E9CECC92ED12C84E1E82EF12C06E6AF
:1001700010E080E090E00E94630080E197E2E9E116
:10018000F0E03197F1F70197D1F7809178009091E5
:100190007900893C910558F4F0920101E092000148
:1001A0000E942C01109389000093880035C0809133
:1001B000780090917900855F914058F43092010168
:1001C000209200010E942C01D0928900C0928800E8
:1001D00023C080917800909179008D5B924058F413
:1001E00090920101809200010E942C01B09289003E
:1001F000A092880011C08091780090917900805081
:10020000944068F450920101409200010E942C0138
:100210007092890060928800CE010197F1F70E94E8
:100220004D00A7CF8093C4009093C50086E48093CF
:10023000C20088ED8093C10008958091C00087FFBF
:10024000FCCF8091C6000895982F8091C00085FF53
:10025000FCCF9093C6000895219A87E68093C4004E
:100260001092C50086E48093C20088ED8093C1009F
:10027000909100018091C00085FFFCCF9093C60053
:0E02800088EA91E60197F1F70895F894FFCF10
:00000001FF
